{
  "_format": "hh-sol-artifact-1",
  "contractName": "FiatSend",
  "sourceName": "contracts/Fiatsend.sol",
  "abi": [
    {
      "inputs": [
        {
          "internalType": "address",
          "name": "_stablecoinAddress",
          "type": "address"
        },
        {
          "internalType": "uint256",
          "name": "_conversionRate",
          "type": "uint256"
        },
        {
          "internalType": "address",
          "name": "_ghsFiatToken",
          "type": "address"
        }
      ],
      "stateMutability": "nonpayable",
      "type": "constructor"
    },
    {
      "anonymous": false,
      "inputs": [
        {
          "indexed": true,
          "internalType": "address",
          "name": "user",
          "type": "address"
        },
        {
          "indexed": false,
          "internalType": "uint256",
          "name": "usdtAmount",
          "type": "uint256"
        },
        {
          "indexed": false,
          "internalType": "uint256",
          "name": "fiatAmount",
          "type": "uint256"
        }
      ],
      "name": "FiatSent",
      "type": "event"
    },
    {
      "anonymous": false,
      "inputs": [
        {
          "indexed": true,
          "internalType": "address",
          "name": "user",
          "type": "address"
        },
        {
          "indexed": false,
          "internalType": "uint8",
          "name": "level",
          "type": "uint8"
        }
      ],
      "name": "KYCVerified",
      "type": "event"
    },
    {
      "anonymous": false,
      "inputs": [
        {
          "indexed": true,
          "internalType": "address",
          "name": "user",
          "type": "address"
        },
        {
          "indexed": false,
          "internalType": "uint256",
          "name": "amount",
          "type": "uint256"
        },
        {
          "indexed": false,
          "internalType": "uint256",
          "name": "ghsAmount",
          "type": "uint256"
        }
      ],
      "name": "StablecoinReceived",
      "type": "event"
    },
    {
      "stateMutability": "payable",
      "type": "fallback"
    },
    {
      "inputs": [],
      "name": "admin",
      "outputs": [
        {
          "internalType": "address",
          "name": "",
          "type": "address"
        }
      ],
      "stateMutability": "view",
      "type": "function"
    },
    {
      "inputs": [],
      "name": "conversionRate",
      "outputs": [
        {
          "internalType": "uint256",
          "name": "",
          "type": "uint256"
        }
      ],
      "stateMutability": "view",
      "type": "function"
    },
    {
      "inputs": [
        {
          "internalType": "uint256",
          "name": "amount",
          "type": "uint256"
        }
      ],
      "name": "depositStablecoin",
      "outputs": [],
      "stateMutability": "nonpayable",
      "type": "function"
    },
    {
      "inputs": [],
      "name": "ghsFiatToken",
      "outputs": [
        {
          "internalType": "contract IERC20",
          "name": "",
          "type": "address"
        }
      ],
      "stateMutability": "view",
      "type": "function"
    },
    {
      "inputs": [
        {
          "internalType": "address",
          "name": "",
          "type": "address"
        }
      ],
      "name": "isWhitelisted",
      "outputs": [
        {
          "internalType": "bool",
          "name": "",
          "type": "bool"
        }
      ],
      "stateMutability": "view",
      "type": "function"
    },
    {
      "inputs": [],
      "name": "kycAdmin",
      "outputs": [
        {
          "internalType": "address",
          "name": "",
          "type": "address"
        }
      ],
      "stateMutability": "view",
      "type": "function"
    },
    {
      "inputs": [
        {
          "internalType": "address",
          "name": "",
          "type": "address"
        }
      ],
      "name": "kycLevel",
      "outputs": [
        {
          "internalType": "uint8",
          "name": "",
          "type": "uint8"
        }
      ],
      "stateMutability": "view",
      "type": "function"
    },
    {
      "inputs": [
        {
          "internalType": "address",
          "name": "",
          "type": "address"
        }
      ],
      "name": "monthlySpent",
      "outputs": [
        {
          "internalType": "uint256",
          "name": "",
          "type": "uint256"
        }
      ],
      "stateMutability": "view",
      "type": "function"
    },
    {
      "inputs": [
        {
          "internalType": "address",
          "name": "_kycAdmin",
          "type": "address"
        }
      ],
      "name": "setKYCAdmin",
      "outputs": [],
      "stateMutability": "nonpayable",
      "type": "function"
    },
    {
      "inputs": [],
      "name": "stablecoinAddress",
      "outputs": [
        {
          "internalType": "address",
          "name": "",
          "type": "address"
        }
      ],
      "stateMutability": "view",
      "type": "function"
    },
    {
      "inputs": [
        {
          "internalType": "address",
          "name": "",
          "type": "address"
        }
      ],
      "name": "totalOffRampAmount",
      "outputs": [
        {
          "internalType": "uint256",
          "name": "",
          "type": "uint256"
        }
      ],
      "stateMutability": "view",
      "type": "function"
    },
    {
      "inputs": [
        {
          "internalType": "uint256",
          "name": "newRate",
          "type": "uint256"
        }
      ],
      "name": "updateConversionRate",
      "outputs": [],
      "stateMutability": "nonpayable",
      "type": "function"
    },
    {
      "inputs": [
        {
          "internalType": "address",
          "name": "user",
          "type": "address"
        },
        {
          "internalType": "uint8",
          "name": "level",
          "type": "uint8"
        }
      ],
      "name": "updateKYCStatus",
      "outputs": [],
      "stateMutability": "nonpayable",
      "type": "function"
    },
    {
      "stateMutability": "payable",
      "type": "receive"
    }
  ],
  "bytecode": "0x6080604052348015600f57600080fd5b50604051610d4f380380610d4f833981016040819052602c916096565b600080546001600160a01b031990811633908117909255600480548216909217909155600180546001600160a01b039586169083161790556002929092556003805491909316911617905560cd565b80516001600160a01b0381168114609157600080fd5b919050565b60008060006060848603121560aa57600080fd5b60b184607b565b92506020840151915060c460408501607b565b90509250925092565b610c73806100dc6000396000f3fe6080604052600436106100c65760003560e01c80636cdc0a0a1161007f578063976734671161005957806397673467146102ce578063ec9e7971146102fb578063f851a4401461031b578063f887a9901461033b5761010c565b80636cdc0a0a1461026a5780637ffdf53e1461028a57806387fcdbc1146102ae5761010c565b8063387eb1c4146101495780633af32abf14610190578063409f8c48146101d057806349ba8efc146101f257806359f99c531461022a578063615737ef1461024a5761010c565b3661010c5760405162461bcd60e51b8152602060048201526011602482015270115512081b9bdd081cdd5c1c1bdc9d1959607a1b60448201526064015b60405180910390fd5b60405162461bcd60e51b8152602060048201526012602482015271119d5b98dd1a5bdb881b9bdd08199bdd5b9960721b6044820152606401610103565b34801561015557600080fd5b50610179610164366004610b02565b60066020526000908152604090205460ff1681565b60405160ff90911681526020015b60405180910390f35b34801561019c57600080fd5b506101c06101ab366004610b02565b60056020526000908152604090205460ff1681565b6040519015158152602001610187565b3480156101dc57600080fd5b506101f06101eb366004610b02565b610368565b005b3480156101fe57600080fd5b50600354610212906001600160a01b031681565b6040516001600160a01b039091168152602001610187565b34801561023657600080fd5b506101f0610245366004610b24565b6103b4565b34801561025657600080fd5b50600154610212906001600160a01b031681565b34801561027657600080fd5b506101f0610285366004610b3d565b610958565b34801561029657600080fd5b506102a060025481565b604051908152602001610187565b3480156102ba57600080fd5b506101f06102c9366004610b24565b610a6d565b3480156102da57600080fd5b506102a06102e9366004610b02565b60086020526000908152604090205481565b34801561030757600080fd5b50600454610212906001600160a01b031681565b34801561032757600080fd5b50600054610212906001600160a01b031681565b34801561034757600080fd5b506102a0610356366004610b02565b60076020526000908152604090205481565b6000546001600160a01b031633146103925760405162461bcd60e51b815260040161010390610b7a565b600480546001600160a01b0319166001600160a01b0392909216919091179055565b600081116104045760405162461bcd60e51b815260206004820181905260248201527f416d6f756e74206d7573742062652067726561746572207468616e207a65726f6044820152606401610103565b3360009081526006602052604081205460ff169061042182610a9c565b90508160ff166000036104b15733600090815260086020526040902054819061044b908590610bd2565b11156104ac5760405162461bcd60e51b815260206004820152602a60248201527f45786365656473206f6e652d74696d65206c696d697420666f7220756e76657260448201526934b334b2b2103ab9b2b960b11b6064820152608401610103565b610514565b3360009081526007602052604090205481906104ce908590610bd2565b11156105145760405162461bcd60e51b8152602060048201526015602482015274115e18d959591cc81b5bdb9d1a1b1e481b1a5b5a5d605a1b6044820152606401610103565b600154604051636eb1769f60e11b81523360048201523060248201526001600160a01b03909116908490829063dd62ed3e90604401602060405180830381865afa158015610566573d6000803e3d6000fd5b505050506040513d601f19601f8201168201806040525081019061058a9190610beb565b10156105d15760405162461bcd60e51b8152602060048201526016602482015275496e73756666696369656e7420616c6c6f77616e636560501b6044820152606401610103565b6040516370a0823160e01b815233600482015284906001600160a01b038316906370a0823190602401602060405180830381865afa158015610617573d6000803e3d6000fd5b505050506040513d601f19601f8201168201806040525081019061063b9190610beb565b10156106805760405162461bcd60e51b8152602060048201526014602482015273496e73756666696369656e742062616c616e636560601b6044820152606401610103565b6040516323b872dd60e01b8152336004820152306024820152604481018590526001600160a01b038216906323b872dd906064016020604051808303816000875af11580156106d3573d6000803e3d6000fd5b505050506040513d601f19601f820116820180604052508101906106f79190610c04565b6107355760405162461bcd60e51b815260206004820152600f60248201526e151c985b9cd9995c8819985a5b1959608a1b6044820152606401610103565b6000600254856107459190610c26565b6003546040516370a0823160e01b815230600482015291925082916001600160a01b03909116906370a0823190602401602060405180830381865afa158015610792573d6000803e3d6000fd5b505050506040513d601f19601f820116820180604052508101906107b69190610beb565b10156107fb5760405162461bcd60e51b8152602060048201526014602482015273125b9cdd59999a58da595b9d0811d214d192505560621b6044820152606401610103565b60035460405163a9059cbb60e01b8152336004820152602481018390526001600160a01b039091169063a9059cbb906044016020604051808303816000875af115801561084c573d6000803e3d6000fd5b505050506040513d601f19601f820116820180604052508101906108709190610c04565b6108bc5760405162461bcd60e51b815260206004820152601760248201527f47485346494154207472616e73666572206661696c65640000000000000000006044820152606401610103565b8360ff166000036108f15733600090815260086020526040812080548792906108e6908490610bd2565b909155506109169050565b3360009081526007602052604081208054879290610910908490610bd2565b90915550505b604080518681526020810183905233917f5cce667400eaa8cc1f7247812b6a21b0d77e95837e95e201ed878d56ffde372c910160405180910390a25050505050565b6004546001600160a01b031633146109b25760405162461bcd60e51b815260206004820152601b60248201527f43616c6c6572206973206e6f7420746865204b59432041646d696e00000000006044820152606401610103565b60028160ff1611156109fa5760405162461bcd60e51b8152602060048201526011602482015270125b9d985b1a590812d650c81b195d995b607a1b6044820152606401610103565b6001600160a01b0382166000818152600660209081526040808320805460ff871660ff1991821681179092556005845293829020805490941681151517909355519182527f5901206b39a68f7382670879562e87f070c1b1e9b39a271c4b1d1a4993a0ea0a910160405180910390a25050565b6000546001600160a01b03163314610a975760405162461bcd60e51b815260040161010390610b7a565b600255565b60008160ff16600103610aba575069152d02c7e14af6800000919050565b8160ff16600203610ad657506969e10de76676d0800000919050565b50683635c9adc5dea00000919050565b80356001600160a01b0381168114610afd57600080fd5b919050565b600060208284031215610b1457600080fd5b610b1d82610ae6565b9392505050565b600060208284031215610b3657600080fd5b5035919050565b60008060408385031215610b5057600080fd5b610b5983610ae6565b9150602083013560ff81168114610b6f57600080fd5b809150509250929050565b60208082526022908201527f4f6e6c792061646d696e2063616e20706572666f726d2074686973206163746960408201526137b760f11b606082015260800190565b634e487b7160e01b600052601160045260246000fd5b80820180821115610be557610be5610bbc565b92915050565b600060208284031215610bfd57600080fd5b5051919050565b600060208284031215610c1657600080fd5b81518015158114610b1d57600080fd5b8082028115828204841417610be557610be5610bbc56fea26469706673582212200b4364e7561298751b1ddfe16cad40be951a1d1a33f9f49afcdb684675a914fa64736f6c634300081b0033",
  "linkReferences": {},
  "deployedLinkReferences": {}
}