{
  "_format": "hh-sol-artifact-1",
  "contractName": "FiatSend",
  "sourceName": "contracts/Fiatsend.sol",
  "abi": [
    {
      "inputs": [
        {
          "internalType": "address",
          "name": "_stablecoinAddress",
          "type": "address"
        },
        {
          "internalType": "address",
          "name": "_ghsFiatTokenAddress",
          "type": "address"
        },
        {
          "internalType": "uint256",
          "name": "_conversionRate",
          "type": "uint256"
        }
      ],
      "stateMutability": "nonpayable",
      "type": "constructor"
    },
    {
      "anonymous": false,
      "inputs": [
        {
          "indexed": true,
          "internalType": "address",
          "name": "user",
          "type": "address"
        },
        {
          "indexed": false,
          "internalType": "uint256",
          "name": "amount",
          "type": "uint256"
        }
      ],
      "name": "GHSFIATSupplied",
      "type": "event"
    },
    {
      "anonymous": false,
      "inputs": [
        {
          "indexed": true,
          "internalType": "address",
          "name": "user",
          "type": "address"
        },
        {
          "indexed": false,
          "internalType": "uint256",
          "name": "rewardAmount",
          "type": "uint256"
        }
      ],
      "name": "RewardsClaimed",
      "type": "event"
    },
    {
      "anonymous": false,
      "inputs": [
        {
          "indexed": true,
          "internalType": "address",
          "name": "user",
          "type": "address"
        },
        {
          "indexed": false,
          "internalType": "uint256",
          "name": "amount",
          "type": "uint256"
        },
        {
          "indexed": false,
          "internalType": "uint256",
          "name": "ghsAmount",
          "type": "uint256"
        }
      ],
      "name": "StablecoinReceived",
      "type": "event"
    },
    {
      "inputs": [],
      "name": "admin",
      "outputs": [
        {
          "internalType": "address",
          "name": "",
          "type": "address"
        }
      ],
      "stateMutability": "view",
      "type": "function"
    },
    {
      "inputs": [],
      "name": "apy",
      "outputs": [
        {
          "internalType": "uint256",
          "name": "",
          "type": "uint256"
        }
      ],
      "stateMutability": "view",
      "type": "function"
    },
    {
      "inputs": [],
      "name": "claimRewards",
      "outputs": [],
      "stateMutability": "nonpayable",
      "type": "function"
    },
    {
      "inputs": [],
      "name": "conversionRate",
      "outputs": [
        {
          "internalType": "uint256",
          "name": "",
          "type": "uint256"
        }
      ],
      "stateMutability": "view",
      "type": "function"
    },
    {
      "inputs": [
        {
          "internalType": "address",
          "name": "",
          "type": "address"
        }
      ],
      "name": "ghsFiatSupply",
      "outputs": [
        {
          "internalType": "uint256",
          "name": "",
          "type": "uint256"
        }
      ],
      "stateMutability": "view",
      "type": "function"
    },
    {
      "inputs": [],
      "name": "ghsFiatTokenAddress",
      "outputs": [
        {
          "internalType": "address",
          "name": "",
          "type": "address"
        }
      ],
      "stateMutability": "view",
      "type": "function"
    },
    {
      "inputs": [
        {
          "internalType": "address",
          "name": "",
          "type": "address"
        }
      ],
      "name": "isVerifiedUser",
      "outputs": [
        {
          "internalType": "bool",
          "name": "",
          "type": "bool"
        }
      ],
      "stateMutability": "view",
      "type": "function"
    },
    {
      "inputs": [
        {
          "internalType": "address",
          "name": "",
          "type": "address"
        }
      ],
      "name": "lastRewardClaimTime",
      "outputs": [
        {
          "internalType": "uint256",
          "name": "",
          "type": "uint256"
        }
      ],
      "stateMutability": "view",
      "type": "function"
    },
    {
      "inputs": [
        {
          "internalType": "uint256",
          "name": "amount",
          "type": "uint256"
        }
      ],
      "name": "offRamp",
      "outputs": [],
      "stateMutability": "nonpayable",
      "type": "function"
    },
    {
      "inputs": [],
      "name": "stablecoinAddress",
      "outputs": [
        {
          "internalType": "address",
          "name": "",
          "type": "address"
        }
      ],
      "stateMutability": "view",
      "type": "function"
    },
    {
      "inputs": [
        {
          "internalType": "uint256",
          "name": "amount",
          "type": "uint256"
        }
      ],
      "name": "supplyGHSFIAT",
      "outputs": [],
      "stateMutability": "nonpayable",
      "type": "function"
    },
    {
      "inputs": [
        {
          "internalType": "address",
          "name": "",
          "type": "address"
        }
      ],
      "name": "totalOffRampAmount",
      "outputs": [
        {
          "internalType": "uint256",
          "name": "",
          "type": "uint256"
        }
      ],
      "stateMutability": "view",
      "type": "function"
    },
    {
      "inputs": [
        {
          "internalType": "uint256",
          "name": "newAPY",
          "type": "uint256"
        }
      ],
      "name": "updateAPY",
      "outputs": [],
      "stateMutability": "nonpayable",
      "type": "function"
    },
    {
      "inputs": [
        {
          "internalType": "uint256",
          "name": "newRate",
          "type": "uint256"
        }
      ],
      "name": "updateConversionRate",
      "outputs": [],
      "stateMutability": "nonpayable",
      "type": "function"
    },
    {
      "inputs": [
        {
          "internalType": "address",
          "name": "user",
          "type": "address"
        }
      ],
      "name": "verifyUser",
      "outputs": [],
      "stateMutability": "nonpayable",
      "type": "function"
    },
    {
      "inputs": [
        {
          "internalType": "uint256",
          "name": "amount",
          "type": "uint256"
        }
      ],
      "name": "withdrawStablecoin",
      "outputs": [],
      "stateMutability": "nonpayable",
      "type": "function"
    }
  ],
  "bytecode": "0x6080604052348015600f57600080fd5b50604051610cb7380380610cb7833981016040819052602c916089565b600080546001600160a01b03199081163317909155600180546001600160a01b03958616908316179055600280549390941692169190911790915560035560c0565b80516001600160a01b0381168114608457600080fd5b919050565b600080600060608486031215609d57600080fd5b60a484606e565b925060b060208501606e565b9150604084015190509250925092565b610be8806100cf6000396000f3fe608060405234801561001057600080fd5b50600436106101005760003560e01c80637ffdf53e1161009757806397673467116100665780639767346714610231578063af05816a14610251578063f851a44014610264578063fae728cd1461027757600080fd5b80637ffdf53e146101ef578063870e974e146101f857806387fcdbc11461020b578063970f75001461021e57600080fd5b8063489e12a4116100d3578063489e12a41461017e5780634d81312014610191578063615737ef146101a45780636c430dbb146101cf57600080fd5b80630d7fe2ac14610105578063372500ab146101385780633bcfc4b8146101425780633da1c0c31461014b575b600080fd5b610125610113366004610a71565b60066020526000908152604090205481565b6040519081526020015b60405180910390f35b61014061028a565b005b61012560085481565b61016e610159366004610a71565b60046020526000908152604090205460ff1681565b604051901515815260200161012f565b61014061018c366004610aa1565b610551565b61014061019f366004610a71565b6106c7565b6001546101b7906001600160a01b031681565b6040516001600160a01b03909116815260200161012f565b6101256101dd366004610a71565b60076020526000908152604090205481565b61012560035481565b610140610206366004610aa1565b610715565b610140610219366004610aa1565b6107fe565b6002546101b7906001600160a01b031681565b61012561023f366004610a71565b60056020526000908152604090205481565b61014061025f366004610aa1565b61082d565b6000546101b7906001600160a01b031681565b610140610285366004610aa1565b610a42565b336000908152600760205260409020544281106102fe5760405162461bcd60e51b815260206004820152602760248201527f416c726561647920636c61696d6564207265776172647320666f722074686973604482015266081c195c9a5bd960ca1b60648201526084015b60405180910390fd5b33600090815260066020526040902054806103515760405162461bcd60e51b8152602060048201526013602482015272139bc811d214d1925055081cdd5c1c1b1a5959606a1b60448201526064016102f5565b600061035d8342610ad0565b9050600063bbf81e0082600854856103759190610ae9565b61037f9190610ae9565b6103899190610b00565b6001546040516370a0823160e01b81523060048201529192506001600160a01b031690829082906370a0823190602401602060405180830381865afa1580156103d6573d6000803e3d6000fd5b505050506040513d601f19601f820116820180604052508101906103fa9190610b22565b10156104485760405162461bcd60e51b815260206004820152601f60248201527f496e73756666696369656e7420737461626c65636f696e2062616c616e63650060448201526064016102f5565b60405163a9059cbb60e01b8152336004820152602481018390526001600160a01b0382169063a9059cbb906044016020604051808303816000875af1158015610495573d6000803e3d6000fd5b505050506040513d601f19601f820116820180604052508101906104b99190610b3b565b6104fe5760405162461bcd60e51b815260206004820152601660248201527514995dd85c99081d1c985b9cd9995c8819985a5b195960521b60448201526064016102f5565b3360008181526007602052604090819020429055517ffc30cddea38e2bf4d6ea7d3f9ed3b6ad7f176419f4963bd81318067a4aee73fe906105429085815260200190565b60405180910390a25050505050565b600081116105a15760405162461bcd60e51b815260206004820181905260248201527f416d6f756e74206d7573742062652067726561746572207468616e207a65726f60448201526064016102f5565b6002546040516323b872dd60e01b8152336004820152306024820152604481018390526001600160a01b039091169081906323b872dd906064016020604051808303816000875af11580156105fa573d6000803e3d6000fd5b505050506040513d601f19601f8201168201806040525081019061061e9190610b3b565b61066a5760405162461bcd60e51b815260206004820152601760248201527f47485346494154207472616e73666572206661696c656400000000000000000060448201526064016102f5565b3360009081526006602052604081208054849290610689908490610b5d565b909155505060405182815233907fc683bf42c9035e8b3fe4855b1314d5edc104bcd61f6eb5199683aaa558ada7519060200160405180910390a25050565b6000546001600160a01b031633146106f15760405162461bcd60e51b81526004016102f590610b70565b6001600160a01b03166000908152600460205260409020805460ff19166001179055565b6000546001600160a01b0316331461073f5760405162461bcd60e51b81526004016102f590610b70565b60015460005460405163a9059cbb60e01b81526001600160a01b03918216600482015260248101849052911690819063a9059cbb906044016020604051808303816000875af1158015610796573d6000803e3d6000fd5b505050506040513d601f19601f820116820180604052508101906107ba9190610b3b565b6107fa5760405162461bcd60e51b815260206004820152601160248201527015da5d1a191c985dd85b0819985a5b1959607a1b60448201526064016102f5565b5050565b6000546001600160a01b031633146108285760405162461bcd60e51b81526004016102f590610b70565b600355565b6000811161087d5760405162461bcd60e51b815260206004820181905260248201527f416d6f756e74206d7573742062652067726561746572207468616e207a65726f60448201526064016102f5565b3360009081526005602052604090205468056bc75e2d6310000081106108f3573360009081526004602052604090205460ff166108f35760405162461bcd60e51b8152602060048201526014602482015273155cd95c881a5cc81b9bdd081d995c9a599a595960621b60448201526064016102f5565b6001546040516323b872dd60e01b8152336004820152306024820152604481018490526001600160a01b039091169081906323b872dd906064016020604051808303816000875af115801561094c573d6000803e3d6000fd5b505050506040513d601f19601f820116820180604052508101906109709190610b3b565b6109bc5760405162461bcd60e51b815260206004820152601a60248201527f537461626c65636f696e207472616e73666572206661696c656400000000000060448201526064016102f5565b60006064600354856109ce9190610ae9565b6109d89190610b00565b336000908152600560205260408120805492935086929091906109fc908490610b5d565b9091555050604080518581526020810183905233917f5cce667400eaa8cc1f7247812b6a21b0d77e95837e95e201ed878d56ffde372c910160405180910390a250505050565b6000546001600160a01b03163314610a6c5760405162461bcd60e51b81526004016102f590610b70565b600855565b600060208284031215610a8357600080fd5b81356001600160a01b0381168114610a9a57600080fd5b9392505050565b600060208284031215610ab357600080fd5b5035919050565b634e487b7160e01b600052601160045260246000fd5b81810381811115610ae357610ae3610aba565b92915050565b8082028115828204841417610ae357610ae3610aba565b600082610b1d57634e487b7160e01b600052601260045260246000fd5b500490565b600060208284031215610b3457600080fd5b5051919050565b600060208284031215610b4d57600080fd5b81518015158114610a9a57600080fd5b80820180821115610ae357610ae3610aba565b60208082526022908201527f4f6e6c792061646d696e2063616e20706572666f726d2074686973206163746960408201526137b760f11b60608201526080019056fea26469706673582212200dd49bd9e0bdabe23a5b1c5380debe7fadc5b6ed5da7a6fd8b1436576d27a6b964736f6c634300081b0033",
  "linkReferences": {},
  "deployedLinkReferences": {}
}