{
  "_format": "hh-sol-artifact-1",
  "contractName": "FiatSend",
  "sourceName": "contracts/Fiatsend.sol",
  "abi": [
    {
      "inputs": [
        {
          "internalType": "address",
          "name": "_stablecoinAddress",
          "type": "address"
        },
        {
          "internalType": "uint256",
          "name": "_conversionRate",
          "type": "uint256"
        },
        {
          "internalType": "address",
          "name": "_ghsFiatToken",
          "type": "address"
        }
      ],
      "stateMutability": "nonpayable",
      "type": "constructor"
    },
    {
      "anonymous": false,
      "inputs": [
        {
          "indexed": true,
          "internalType": "address",
          "name": "user",
          "type": "address"
        },
        {
          "indexed": false,
          "internalType": "uint256",
          "name": "usdtAmount",
          "type": "uint256"
        },
        {
          "indexed": false,
          "internalType": "uint256",
          "name": "fiatAmount",
          "type": "uint256"
        }
      ],
      "name": "FiatSent",
      "type": "event"
    },
    {
      "anonymous": false,
      "inputs": [
        {
          "indexed": true,
          "internalType": "address",
          "name": "user",
          "type": "address"
        },
        {
          "indexed": false,
          "internalType": "uint8",
          "name": "level",
          "type": "uint8"
        }
      ],
      "name": "KYCVerified",
      "type": "event"
    },
    {
      "anonymous": false,
      "inputs": [
        {
          "indexed": true,
          "internalType": "address",
          "name": "user",
          "type": "address"
        },
        {
          "indexed": false,
          "internalType": "uint256",
          "name": "amount",
          "type": "uint256"
        },
        {
          "indexed": false,
          "internalType": "uint256",
          "name": "ghsAmount",
          "type": "uint256"
        }
      ],
      "name": "StablecoinReceived",
      "type": "event"
    },
    {
      "stateMutability": "payable",
      "type": "fallback"
    },
    {
      "inputs": [],
      "name": "admin",
      "outputs": [
        {
          "internalType": "address",
          "name": "",
          "type": "address"
        }
      ],
      "stateMutability": "view",
      "type": "function"
    },
    {
      "inputs": [],
      "name": "conversionRate",
      "outputs": [
        {
          "internalType": "uint256",
          "name": "",
          "type": "uint256"
        }
      ],
      "stateMutability": "view",
      "type": "function"
    },
    {
      "inputs": [
        {
          "internalType": "uint256",
          "name": "amount",
          "type": "uint256"
        }
      ],
      "name": "depositStablecoin",
      "outputs": [],
      "stateMutability": "nonpayable",
      "type": "function"
    },
    {
      "inputs": [],
      "name": "ghsFiatToken",
      "outputs": [
        {
          "internalType": "contract IERC20",
          "name": "",
          "type": "address"
        }
      ],
      "stateMutability": "view",
      "type": "function"
    },
    {
      "inputs": [
        {
          "internalType": "address",
          "name": "",
          "type": "address"
        }
      ],
      "name": "isWhitelisted",
      "outputs": [
        {
          "internalType": "bool",
          "name": "",
          "type": "bool"
        }
      ],
      "stateMutability": "view",
      "type": "function"
    },
    {
      "inputs": [],
      "name": "kycAdmin",
      "outputs": [
        {
          "internalType": "address",
          "name": "",
          "type": "address"
        }
      ],
      "stateMutability": "view",
      "type": "function"
    },
    {
      "inputs": [
        {
          "internalType": "address",
          "name": "",
          "type": "address"
        }
      ],
      "name": "kycLevel",
      "outputs": [
        {
          "internalType": "uint8",
          "name": "",
          "type": "uint8"
        }
      ],
      "stateMutability": "view",
      "type": "function"
    },
    {
      "inputs": [
        {
          "internalType": "address",
          "name": "",
          "type": "address"
        }
      ],
      "name": "monthlySpent",
      "outputs": [
        {
          "internalType": "uint256",
          "name": "",
          "type": "uint256"
        }
      ],
      "stateMutability": "view",
      "type": "function"
    },
    {
      "inputs": [],
      "name": "processUSDT",
      "outputs": [],
      "stateMutability": "nonpayable",
      "type": "function"
    },
    {
      "inputs": [
        {
          "internalType": "address",
          "name": "_kycAdmin",
          "type": "address"
        }
      ],
      "name": "setKYCAdmin",
      "outputs": [],
      "stateMutability": "nonpayable",
      "type": "function"
    },
    {
      "inputs": [],
      "name": "stablecoinAddress",
      "outputs": [
        {
          "internalType": "address",
          "name": "",
          "type": "address"
        }
      ],
      "stateMutability": "view",
      "type": "function"
    },
    {
      "inputs": [
        {
          "internalType": "uint256",
          "name": "newRate",
          "type": "uint256"
        }
      ],
      "name": "updateConversionRate",
      "outputs": [],
      "stateMutability": "nonpayable",
      "type": "function"
    },
    {
      "inputs": [
        {
          "internalType": "address",
          "name": "user",
          "type": "address"
        },
        {
          "internalType": "uint8",
          "name": "level",
          "type": "uint8"
        }
      ],
      "name": "updateKYCStatus",
      "outputs": [],
      "stateMutability": "nonpayable",
      "type": "function"
    },
    {
      "stateMutability": "payable",
      "type": "receive"
    }
  ],
  "bytecode": "0x6080604052348015600f57600080fd5b5060405161102b38038061102b833981016040819052602c916096565b600080546001600160a01b031990811633908117909255600480548216909217909155600180546001600160a01b039586169083161790556002929092556003805491909316911617905560cd565b80516001600160a01b0381168114609157600080fd5b919050565b60008060006060848603121560aa57600080fd5b60b184607b565b92506020840151915060c460408501607b565b90509250925092565b610f4f806100dc6000396000f3fe6080604052600436106100c65760003560e01c80636cdc0a0a1161007f57806387fcdbc11161005957806387fcdbc1146102c3578063ec9e7971146102e3578063f851a44014610303578063f887a990146103235761010c565b80636cdc0a0a1461026a5780636e2132601461028a5780637ffdf53e1461029f5761010c565b8063387eb1c4146101495780633af32abf14610190578063409f8c48146101d057806349ba8efc146101f257806359f99c531461022a578063615737ef1461024a5761010c565b3661010c5760405162461bcd60e51b8152602060048201526011602482015270115512081b9bdd081cdd5c1c1bdc9d1959607a1b60448201526064015b60405180910390fd5b60405162461bcd60e51b8152602060048201526012602482015271119d5b98dd1a5bdb881b9bdd08199bdd5b9960721b6044820152606401610103565b34801561015557600080fd5b50610179610164366004610dde565b60066020526000908152604090205460ff1681565b60405160ff90911681526020015b60405180910390f35b34801561019c57600080fd5b506101c06101ab366004610dde565b60056020526000908152604090205460ff1681565b6040519015158152602001610187565b3480156101dc57600080fd5b506101f06101eb366004610dde565b610350565b005b3480156101fe57600080fd5b50600354610212906001600160a01b031681565b6040516001600160a01b039091168152602001610187565b34801561023657600080fd5b506101f0610245366004610e00565b61039c565b34801561025657600080fd5b50600154610212906001600160a01b031681565b34801561027657600080fd5b506101f0610285366004610e19565b6108d2565b34801561029657600080fd5b506101f06109e7565b3480156102ab57600080fd5b506102b560025481565b604051908152602001610187565b3480156102cf57600080fd5b506101f06102de366004610e00565b610d58565b3480156102ef57600080fd5b50600454610212906001600160a01b031681565b34801561030f57600080fd5b50600054610212906001600160a01b031681565b34801561032f57600080fd5b506102b561033e366004610dde565b60076020526000908152604090205481565b6000546001600160a01b0316331461037a5760405162461bcd60e51b815260040161010390610e56565b600480546001600160a01b0319166001600160a01b0392909216919091179055565b3360009081526005602052604090205460ff166103f65760405162461bcd60e51b8152602060048201526018602482015277155cd95c881a5cc81b9bdd0812d650c81d995c9a599a595960421b6044820152606401610103565b600081116104465760405162461bcd60e51b815260206004820181905260248201527f416d6f756e74206d7573742062652067726561746572207468616e207a65726f6044820152606401610103565b3360009081526006602052604081205460ff169061046382610d87565b336000908152600760205260409020549091508190610483908590610eae565b11156104c95760405162461bcd60e51b8152602060048201526015602482015274115e18d959591cc81b5bdb9d1a1b1e481b1a5b5a5d605a1b6044820152606401610103565b600154604051636eb1769f60e11b81523360048201523060248201526001600160a01b03909116908490829063dd62ed3e90604401602060405180830381865afa15801561051b573d6000803e3d6000fd5b505050506040513d601f19601f8201168201806040525081019061053f9190610ec7565b10156105865760405162461bcd60e51b8152602060048201526016602482015275496e73756666696369656e7420616c6c6f77616e636560501b6044820152606401610103565b6040516370a0823160e01b815233600482015284906001600160a01b038316906370a0823190602401602060405180830381865afa1580156105cc573d6000803e3d6000fd5b505050506040513d601f19601f820116820180604052508101906105f09190610ec7565b10156106355760405162461bcd60e51b8152602060048201526014602482015273496e73756666696369656e742062616c616e636560601b6044820152606401610103565b6040516323b872dd60e01b8152336004820152306024820152604481018590526001600160a01b038216906323b872dd906064016020604051808303816000875af1158015610688573d6000803e3d6000fd5b505050506040513d601f19601f820116820180604052508101906106ac9190610ee0565b6106ea5760405162461bcd60e51b815260206004820152600f60248201526e151c985b9cd9995c8819985a5b1959608a1b6044820152606401610103565b6000600254856106fa9190610f02565b6003546040516370a0823160e01b815230600482015291925082916001600160a01b03909116906370a0823190602401602060405180830381865afa158015610747573d6000803e3d6000fd5b505050506040513d601f19601f8201168201806040525081019061076b9190610ec7565b10156107b05760405162461bcd60e51b8152602060048201526014602482015273125b9cdd59999a58da595b9d0811d214d192505560621b6044820152606401610103565b60035460405163a9059cbb60e01b8152336004820152602481018390526001600160a01b039091169063a9059cbb906044016020604051808303816000875af1158015610801573d6000803e3d6000fd5b505050506040513d601f19601f820116820180604052508101906108259190610ee0565b61086b5760405162461bcd60e51b815260206004820152601760248201527611d214d1925055081d1c985b9cd9995c8819985a5b1959604a1b6044820152606401610103565b336000908152600760205260408120805487929061088a908490610eae565b9091555050604080518681526020810183905233917f5cce667400eaa8cc1f7247812b6a21b0d77e95837e95e201ed878d56ffde372c91015b60405180910390a25050505050565b6004546001600160a01b0316331461092c5760405162461bcd60e51b815260206004820152601b60248201527f43616c6c6572206973206e6f7420746865204b59432041646d696e00000000006044820152606401610103565b60028160ff1611156109745760405162461bcd60e51b8152602060048201526011602482015270125b9d985b1a590812d650c81b195d995b607a1b6044820152606401610103565b6001600160a01b0382166000818152600660209081526040808320805460ff871660ff1991821681179092556005845293829020805490941681151517909355519182527f5901206b39a68f7382670879562e87f070c1b1e9b39a271c4b1d1a4993a0ea0a910160405180910390a25050565b3360009081526005602052604090205460ff16610a415760405162461bcd60e51b8152602060048201526018602482015277155cd95c881a5cc81b9bdd0812d650c81d995c9a599a595960421b6044820152606401610103565b6001546040516370a0823160e01b81523060048201526001600160a01b039091169060009082906370a0823190602401602060405180830381865afa158015610a8e573d6000803e3d6000fd5b505050506040513d601f19601f82011682018060405250810190610ab29190610ec7565b905060008111610af95760405162461bcd60e51b81526020600482015260126024820152714e6f205553445420746f2070726f6365737360701b6044820152606401610103565b3360009081526006602052604081205460ff1690610b1682610d87565b336000908152600760205260409020549091508190610b36908590610eae565b1115610b7c5760405162461bcd60e51b8152602060048201526015602482015274115e18d959591cc81b5bdb9d1a1b1e481b1a5b5a5d605a1b6044820152606401610103565b600060025484610b8c9190610f02565b6003546040516370a0823160e01b815230600482015291925082916001600160a01b03909116906370a0823190602401602060405180830381865afa158015610bd9573d6000803e3d6000fd5b505050506040513d601f19601f82011682018060405250810190610bfd9190610ec7565b1015610c425760405162461bcd60e51b8152602060048201526014602482015273125b9cdd59999a58da595b9d0811d214d192505560621b6044820152606401610103565b60035460405163a9059cbb60e01b8152336004820152602481018390526001600160a01b039091169063a9059cbb906044016020604051808303816000875af1158015610c93573d6000803e3d6000fd5b505050506040513d601f19601f82011682018060405250810190610cb79190610ee0565b610cfd5760405162461bcd60e51b815260206004820152601760248201527611d214d1925055081d1c985b9cd9995c8819985a5b1959604a1b6044820152606401610103565b3360009081526007602052604081208054869290610d1c908490610eae565b9091555050604080518581526020810183905233917e7eba6f5a3736023ea07d2c9f2667d5e7161e9e6379fafc3dbbd9d3154547dd91016108c3565b6000546001600160a01b03163314610d825760405162461bcd60e51b815260040161010390610e56565b600255565b60008160ff16600103610da0575064174876e800919050565b8160ff16600203610db7575064746a528800919050565b50633b9aca00919050565b80356001600160a01b0381168114610dd957600080fd5b919050565b600060208284031215610df057600080fd5b610df982610dc2565b9392505050565b600060208284031215610e1257600080fd5b5035919050565b60008060408385031215610e2c57600080fd5b610e3583610dc2565b9150602083013560ff81168114610e4b57600080fd5b809150509250929050565b60208082526022908201527f4f6e6c792061646d696e2063616e20706572666f726d2074686973206163746960408201526137b760f11b606082015260800190565b634e487b7160e01b600052601160045260246000fd5b80820180821115610ec157610ec1610e98565b92915050565b600060208284031215610ed957600080fd5b5051919050565b600060208284031215610ef257600080fd5b81518015158114610df957600080fd5b8082028115828204841417610ec157610ec1610e9856fea264697066735822122089721a04f4b687a5f08ae69e7f9e31676de32726321c05e42475403e825c321864736f6c634300081b0033",
  "linkReferences": {},
  "deployedLinkReferences": {}
}