{
  "_format": "hh-sol-artifact-1",
  "contractName": "FiatSend",
  "sourceName": "contracts/Fiatsend.sol",
  "abi": [
    {
      "inputs": [
        {
          "internalType": "address",
          "name": "_stablecoinAddress",
          "type": "address"
        },
        {
          "internalType": "uint256",
          "name": "_conversionRate",
          "type": "uint256"
        }
      ],
      "stateMutability": "nonpayable",
      "type": "constructor"
    },
    {
      "anonymous": false,
      "inputs": [
        {
          "indexed": true,
          "internalType": "address",
          "name": "user",
          "type": "address"
        },
        {
          "indexed": false,
          "internalType": "uint256",
          "name": "amount",
          "type": "uint256"
        },
        {
          "indexed": false,
          "internalType": "uint256",
          "name": "ghsAmount",
          "type": "uint256"
        }
      ],
      "name": "StablecoinReceived",
      "type": "event"
    },
    {
      "inputs": [],
      "name": "admin",
      "outputs": [
        {
          "internalType": "address",
          "name": "",
          "type": "address"
        }
      ],
      "stateMutability": "view",
      "type": "function"
    },
    {
      "inputs": [],
      "name": "conversionRate",
      "outputs": [
        {
          "internalType": "uint256",
          "name": "",
          "type": "uint256"
        }
      ],
      "stateMutability": "view",
      "type": "function"
    },
    {
      "inputs": [
        {
          "internalType": "uint256",
          "name": "amount",
          "type": "uint256"
        }
      ],
      "name": "depositStablecoin",
      "outputs": [],
      "stateMutability": "nonpayable",
      "type": "function"
    },
    {
      "inputs": [
        {
          "internalType": "address",
          "name": "",
          "type": "address"
        }
      ],
      "name": "isVerifiedUser",
      "outputs": [
        {
          "internalType": "bool",
          "name": "",
          "type": "bool"
        }
      ],
      "stateMutability": "view",
      "type": "function"
    },
    {
      "inputs": [],
      "name": "stablecoinAddress",
      "outputs": [
        {
          "internalType": "address",
          "name": "",
          "type": "address"
        }
      ],
      "stateMutability": "view",
      "type": "function"
    },
    {
      "inputs": [
        {
          "internalType": "uint256",
          "name": "newRate",
          "type": "uint256"
        }
      ],
      "name": "updateConversionRate",
      "outputs": [],
      "stateMutability": "nonpayable",
      "type": "function"
    },
    {
      "inputs": [
        {
          "internalType": "address",
          "name": "user",
          "type": "address"
        }
      ],
      "name": "verifyUser",
      "outputs": [],
      "stateMutability": "nonpayable",
      "type": "function"
    },
    {
      "inputs": [
        {
          "internalType": "uint256",
          "name": "amount",
          "type": "uint256"
        }
      ],
      "name": "withdrawStablecoin",
      "outputs": [],
      "stateMutability": "nonpayable",
      "type": "function"
    }
  ],
  "bytecode": "0x6080604052348015600f57600080fd5b50604051610656380380610656833981016040819052602c916062565b60008054336001600160a01b031991821617909155600180549091166001600160a01b039390931692909217909155600255609a565b60008060408385031215607457600080fd5b82516001600160a01b0381168114608a57600080fd5b6020939093015192949293505050565b6105ad806100a96000396000f3fe608060405234801561001057600080fd5b50600436106100885760003560e01c80637ffdf53e1161005b5780637ffdf53e14610118578063870e974e1461012f57806387fcdbc114610142578063f851a4401461015557600080fd5b80633da1c0c31461008d5780634d813120146100c557806359f99c53146100da578063615737ef146100ed575b600080fd5b6100b061009b36600461049f565b60036020526000908152604090205460ff1681565b60405190151581526020015b60405180910390f35b6100d86100d336600461049f565b610168565b005b6100d86100e83660046104cf565b6101bf565b600154610100906001600160a01b031681565b6040516001600160a01b0390911681526020016100bc565b61012160025481565b6040519081526020016100bc565b6100d861013d3660046104cf565b610381565b6100d86101503660046104cf565b610470565b600054610100906001600160a01b031681565b6000546001600160a01b0316331461019b5760405162461bcd60e51b8152600401610192906104e8565b60405180910390fd5b6001600160a01b03166000908152600360205260409020805460ff19166001179055565b3360009081526003602052604090205460ff166102155760405162461bcd60e51b8152602060048201526014602482015273155cd95c881a5cc81b9bdd081d995c9a599a595960621b6044820152606401610192565b600081116102655760405162461bcd60e51b815260206004820181905260248201527f416d6f756e74206d7573742062652067726561746572207468616e207a65726f6044820152606401610192565b6001546040516323b872dd60e01b8152336004820152306024820152604481018390526001600160a01b039091169081906323b872dd906064016020604051808303816000875af11580156102be573d6000803e3d6000fd5b505050506040513d601f19601f820116820180604052508101906102e2919061052a565b61032e5760405162461bcd60e51b815260206004820152601a60248201527f537461626c65636f696e207472616e73666572206661696c65640000000000006044820152606401610192565b60006002548361033e919061054c565b604080518581526020810183905291925033917f5cce667400eaa8cc1f7247812b6a21b0d77e95837e95e201ed878d56ffde372c910160405180910390a2505050565b6000546001600160a01b031633146103ab5760405162461bcd60e51b8152600401610192906104e8565b6001546000546040516323b872dd60e01b81523060048201526001600160a01b0391821660248201526044810184905291169081906323b872dd906064016020604051808303816000875af1158015610408573d6000803e3d6000fd5b505050506040513d601f19601f8201168201806040525081019061042c919061052a565b61046c5760405162461bcd60e51b815260206004820152601160248201527015da5d1a191c985dd85b0819985a5b1959607a1b6044820152606401610192565b5050565b6000546001600160a01b0316331461049a5760405162461bcd60e51b8152600401610192906104e8565b600255565b6000602082840312156104b157600080fd5b81356001600160a01b03811681146104c857600080fd5b9392505050565b6000602082840312156104e157600080fd5b5035919050565b60208082526022908201527f4f6e6c792061646d696e2063616e20706572666f726d2074686973206163746960408201526137b760f11b606082015260800190565b60006020828403121561053c57600080fd5b815180151581146104c857600080fd5b808202811582820484141761057157634e487b7160e01b600052601160045260246000fd5b9291505056fea2646970667358221220741d66b9554ef897a46567a49a89e6096b675781d3f7a9cb97854a220796eb0c64736f6c634300081b0033",
  "linkReferences": {},
  "deployedLinkReferences": {}
}