{
  "_format": "hh-sol-artifact-1",
  "contractName": "FiatsendNFT",
  "sourceName": "contracts/FiatsendNFT.sol",
  "abi": [
    {
      "inputs": [],
      "stateMutability": "nonpayable",
      "type": "constructor"
    },
    {
      "inputs": [
        {
          "internalType": "address",
          "name": "sender",
          "type": "address"
        },
        {
          "internalType": "uint256",
          "name": "tokenId",
          "type": "uint256"
        },
        {
          "internalType": "address",
          "name": "owner",
          "type": "address"
        }
      ],
      "name": "ERC721IncorrectOwner",
      "type": "error"
    },
    {
      "inputs": [
        {
          "internalType": "address",
          "name": "operator",
          "type": "address"
        },
        {
          "internalType": "uint256",
          "name": "tokenId",
          "type": "uint256"
        }
      ],
      "name": "ERC721InsufficientApproval",
      "type": "error"
    },
    {
      "inputs": [
        {
          "internalType": "address",
          "name": "approver",
          "type": "address"
        }
      ],
      "name": "ERC721InvalidApprover",
      "type": "error"
    },
    {
      "inputs": [
        {
          "internalType": "address",
          "name": "operator",
          "type": "address"
        }
      ],
      "name": "ERC721InvalidOperator",
      "type": "error"
    },
    {
      "inputs": [
        {
          "internalType": "address",
          "name": "owner",
          "type": "address"
        }
      ],
      "name": "ERC721InvalidOwner",
      "type": "error"
    },
    {
      "inputs": [
        {
          "internalType": "address",
          "name": "receiver",
          "type": "address"
        }
      ],
      "name": "ERC721InvalidReceiver",
      "type": "error"
    },
    {
      "inputs": [
        {
          "internalType": "address",
          "name": "sender",
          "type": "address"
        }
      ],
      "name": "ERC721InvalidSender",
      "type": "error"
    },
    {
      "inputs": [
        {
          "internalType": "uint256",
          "name": "tokenId",
          "type": "uint256"
        }
      ],
      "name": "ERC721NonexistentToken",
      "type": "error"
    },
    {
      "inputs": [
        {
          "internalType": "address",
          "name": "owner",
          "type": "address"
        }
      ],
      "name": "OwnableInvalidOwner",
      "type": "error"
    },
    {
      "inputs": [
        {
          "internalType": "address",
          "name": "account",
          "type": "address"
        }
      ],
      "name": "OwnableUnauthorizedAccount",
      "type": "error"
    },
    {
      "anonymous": false,
      "inputs": [
        {
          "indexed": true,
          "internalType": "address",
          "name": "owner",
          "type": "address"
        },
        {
          "indexed": true,
          "internalType": "address",
          "name": "approved",
          "type": "address"
        },
        {
          "indexed": true,
          "internalType": "uint256",
          "name": "tokenId",
          "type": "uint256"
        }
      ],
      "name": "Approval",
      "type": "event"
    },
    {
      "anonymous": false,
      "inputs": [
        {
          "indexed": true,
          "internalType": "address",
          "name": "owner",
          "type": "address"
        },
        {
          "indexed": true,
          "internalType": "address",
          "name": "operator",
          "type": "address"
        },
        {
          "indexed": false,
          "internalType": "bool",
          "name": "approved",
          "type": "bool"
        }
      ],
      "name": "ApprovalForAll",
      "type": "event"
    },
    {
      "anonymous": false,
      "inputs": [
        {
          "indexed": false,
          "internalType": "uint256",
          "name": "_fromTokenId",
          "type": "uint256"
        },
        {
          "indexed": false,
          "internalType": "uint256",
          "name": "_toTokenId",
          "type": "uint256"
        }
      ],
      "name": "BatchMetadataUpdate",
      "type": "event"
    },
    {
      "anonymous": false,
      "inputs": [
        {
          "indexed": false,
          "internalType": "uint256",
          "name": "_tokenId",
          "type": "uint256"
        }
      ],
      "name": "MetadataUpdate",
      "type": "event"
    },
    {
      "anonymous": false,
      "inputs": [
        {
          "indexed": true,
          "internalType": "address",
          "name": "previousOwner",
          "type": "address"
        },
        {
          "indexed": true,
          "internalType": "address",
          "name": "newOwner",
          "type": "address"
        }
      ],
      "name": "OwnershipTransferred",
      "type": "event"
    },
    {
      "anonymous": false,
      "inputs": [
        {
          "indexed": true,
          "internalType": "address",
          "name": "from",
          "type": "address"
        },
        {
          "indexed": true,
          "internalType": "address",
          "name": "to",
          "type": "address"
        },
        {
          "indexed": true,
          "internalType": "uint256",
          "name": "tokenId",
          "type": "uint256"
        }
      ],
      "name": "Transfer",
      "type": "event"
    },
    {
      "inputs": [
        {
          "internalType": "address",
          "name": "to",
          "type": "address"
        },
        {
          "internalType": "uint256",
          "name": "tokenId",
          "type": "uint256"
        }
      ],
      "name": "approve",
      "outputs": [],
      "stateMutability": "nonpayable",
      "type": "function"
    },
    {
      "inputs": [
        {
          "internalType": "address",
          "name": "owner",
          "type": "address"
        }
      ],
      "name": "balanceOf",
      "outputs": [
        {
          "internalType": "uint256",
          "name": "",
          "type": "uint256"
        }
      ],
      "stateMutability": "view",
      "type": "function"
    },
    {
      "inputs": [
        {
          "internalType": "uint256",
          "name": "tokenId",
          "type": "uint256"
        }
      ],
      "name": "burnNFT",
      "outputs": [],
      "stateMutability": "nonpayable",
      "type": "function"
    },
    {
      "inputs": [
        {
          "internalType": "uint256",
          "name": "tokenId",
          "type": "uint256"
        }
      ],
      "name": "getApproved",
      "outputs": [
        {
          "internalType": "address",
          "name": "",
          "type": "address"
        }
      ],
      "stateMutability": "view",
      "type": "function"
    },
    {
      "inputs": [
        {
          "internalType": "uint256",
          "name": "tokenId",
          "type": "uint256"
        }
      ],
      "name": "getEncryptedPhoneNumber",
      "outputs": [
        {
          "internalType": "string",
          "name": "",
          "type": "string"
        }
      ],
      "stateMutability": "view",
      "type": "function"
    },
    {
      "inputs": [
        {
          "internalType": "address",
          "name": "owner",
          "type": "address"
        },
        {
          "internalType": "address",
          "name": "operator",
          "type": "address"
        }
      ],
      "name": "isApprovedForAll",
      "outputs": [
        {
          "internalType": "bool",
          "name": "",
          "type": "bool"
        }
      ],
      "stateMutability": "view",
      "type": "function"
    },
    {
      "inputs": [
        {
          "internalType": "address",
          "name": "to",
          "type": "address"
        },
        {
          "internalType": "string",
          "name": "tokenURI",
          "type": "string"
        },
        {
          "internalType": "string",
          "name": "encryptedPhoneNumber",
          "type": "string"
        }
      ],
      "name": "mintFiatsendNFT",
      "outputs": [],
      "stateMutability": "nonpayable",
      "type": "function"
    },
    {
      "inputs": [],
      "name": "name",
      "outputs": [
        {
          "internalType": "string",
          "name": "",
          "type": "string"
        }
      ],
      "stateMutability": "view",
      "type": "function"
    },
    {
      "inputs": [],
      "name": "owner",
      "outputs": [
        {
          "internalType": "address",
          "name": "",
          "type": "address"
        }
      ],
      "stateMutability": "view",
      "type": "function"
    },
    {
      "inputs": [
        {
          "internalType": "uint256",
          "name": "tokenId",
          "type": "uint256"
        }
      ],
      "name": "ownerOf",
      "outputs": [
        {
          "internalType": "address",
          "name": "",
          "type": "address"
        }
      ],
      "stateMutability": "view",
      "type": "function"
    },
    {
      "inputs": [],
      "name": "renounceOwnership",
      "outputs": [],
      "stateMutability": "nonpayable",
      "type": "function"
    },
    {
      "inputs": [
        {
          "internalType": "address",
          "name": "from",
          "type": "address"
        },
        {
          "internalType": "address",
          "name": "to",
          "type": "address"
        },
        {
          "internalType": "uint256",
          "name": "tokenId",
          "type": "uint256"
        }
      ],
      "name": "safeTransferFrom",
      "outputs": [],
      "stateMutability": "nonpayable",
      "type": "function"
    },
    {
      "inputs": [
        {
          "internalType": "address",
          "name": "from",
          "type": "address"
        },
        {
          "internalType": "address",
          "name": "to",
          "type": "address"
        },
        {
          "internalType": "uint256",
          "name": "tokenId",
          "type": "uint256"
        },
        {
          "internalType": "bytes",
          "name": "data",
          "type": "bytes"
        }
      ],
      "name": "safeTransferFrom",
      "outputs": [],
      "stateMutability": "nonpayable",
      "type": "function"
    },
    {
      "inputs": [
        {
          "internalType": "address",
          "name": "operator",
          "type": "address"
        },
        {
          "internalType": "bool",
          "name": "approved",
          "type": "bool"
        }
      ],
      "name": "setApprovalForAll",
      "outputs": [],
      "stateMutability": "nonpayable",
      "type": "function"
    },
    {
      "inputs": [
        {
          "internalType": "bytes4",
          "name": "interfaceId",
          "type": "bytes4"
        }
      ],
      "name": "supportsInterface",
      "outputs": [
        {
          "internalType": "bool",
          "name": "",
          "type": "bool"
        }
      ],
      "stateMutability": "view",
      "type": "function"
    },
    {
      "inputs": [],
      "name": "symbol",
      "outputs": [
        {
          "internalType": "string",
          "name": "",
          "type": "string"
        }
      ],
      "stateMutability": "view",
      "type": "function"
    },
    {
      "inputs": [],
      "name": "tokenCounter",
      "outputs": [
        {
          "internalType": "uint256",
          "name": "",
          "type": "uint256"
        }
      ],
      "stateMutability": "view",
      "type": "function"
    },
    {
      "inputs": [
        {
          "internalType": "uint256",
          "name": "tokenId",
          "type": "uint256"
        }
      ],
      "name": "tokenURI",
      "outputs": [
        {
          "internalType": "string",
          "name": "",
          "type": "string"
        }
      ],
      "stateMutability": "view",
      "type": "function"
    },
    {
      "inputs": [
        {
          "internalType": "address",
          "name": "from",
          "type": "address"
        },
        {
          "internalType": "address",
          "name": "to",
          "type": "address"
        },
        {
          "internalType": "uint256",
          "name": "tokenId",
          "type": "uint256"
        }
      ],
      "name": "transferFrom",
      "outputs": [],
      "stateMutability": "nonpayable",
      "type": "function"
    },
    {
      "inputs": [
        {
          "internalType": "address",
          "name": "newOwner",
          "type": "address"
        }
      ],
      "name": "transferOwnership",
      "outputs": [],
      "stateMutability": "nonpayable",
      "type": "function"
    }
  ],
  "bytecode": "0x608060405234801561001057600080fd5b50336040518060400160405280600b81526020016a119a585d1cd95b9913919560aa1b815250604051806040016040528060058152602001641194d3919560da1b815250816000908161006391906101a6565b50600161007082826101a6565b5050506001600160a01b0381166100a157604051631e4fbdf760e01b81526000600482015260240160405180910390fd5b6100aa816100b5565b506000600855610264565b600780546001600160a01b038381166001600160a01b0319831681179093556040519116919082907f8be0079c531659141344cd1fd0a4f28419497f9722a3daafe3b4186f6b6457e090600090a35050565b634e487b7160e01b600052604160045260246000fd5b600181811c9082168061013157607f821691505b60208210810361015157634e487b7160e01b600052602260045260246000fd5b50919050565b601f8211156101a157806000526020600020601f840160051c8101602085101561017e5750805b601f840160051c820191505b8181101561019e576000815560010161018a565b50505b505050565b81516001600160401b038111156101bf576101bf610107565b6101d3816101cd845461011d565b84610157565b6020601f82116001811461020757600083156101ef5750848201515b600019600385901b1c1916600184901b17845561019e565b600084815260208120601f198516915b828110156102375787850151825560209485019460019092019101610217565b50848210156102555786840151600019600387901b60f8161c191681555b50505050600190811b01905550565b6116a9806102736000396000f3fe608060405234801561001057600080fd5b506004361061012c5760003560e01c8063715018a6116100ad578063b88d4fde11610071578063b88d4fde14610275578063c87b56dd14610288578063d082e3811461029b578063e985e9c5146102a4578063f2fde38b146102b757600080fd5b8063715018a61461022e5780638da5cb5b1461023657806395d89b4114610247578063a22cb4651461024f578063abb586711461026257600080fd5b806323b872dd116100f457806323b872dd146101c15780632890e0d7146101d457806342842e0e146101e75780636352211e146101fa57806370a082311461020d57600080fd5b806301ffc9a71461013157806306fdde0314610159578063081812fc1461016e578063095ea7b3146101995780630ef8489d146101ae575b600080fd5b61014461013f36600461113e565b6102ca565b60405190151581526020015b60405180910390f35b6101616102f5565b60405161015091906111ab565b61018161017c3660046111be565b610387565b6040516001600160a01b039091168152602001610150565b6101ac6101a73660046111f3565b6103b0565b005b6101616101bc3660046111be565b6103bf565b6101ac6101cf36600461121d565b610461565b6101ac6101e23660046111be565b6104f1565b6101ac6101f536600461121d565b6105b2565b6101816102083660046111be565b6105d2565b61022061021b36600461125a565b6105dd565b604051908152602001610150565b6101ac610625565b6007546001600160a01b0316610181565b610161610639565b6101ac61025d366004611275565b610648565b6101ac610270366004611361565b610653565b6101ac6102833660046113da565b6106a1565b6101616102963660046111be565b6106b9565b61022060085481565b6101446102b2366004611456565b6107ca565b6101ac6102c536600461125a565b6107f8565b60006001600160e01b03198216632483248360e11b14806102ef57506102ef82610833565b92915050565b60606000805461030490611489565b80601f016020809104026020016040519081016040528092919081815260200182805461033090611489565b801561037d5780601f106103525761010080835404028352916020019161037d565b820191906000526020600020905b81548152906001019060200180831161036057829003601f168201915b5050505050905090565b600061039282610883565b506000828152600460205260409020546001600160a01b03166102ef565b6103bb8282336108bc565b5050565b60008181526009602052604090208054606091906103dc90611489565b80601f016020809104026020016040519081016040528092919081815260200182805461040890611489565b80156104555780601f1061042a57610100808354040283529160200191610455565b820191906000526020600020905b81548152906001019060200180831161043857829003601f168201915b50505050509050919050565b6001600160a01b03821661049057604051633250574960e11b8152600060048201526024015b60405180910390fd5b600061049d8383336108c9565b9050836001600160a01b0316816001600160a01b0316146104eb576040516364283d7b60e01b81526001600160a01b0380861660048301526024820184905282166044820152606401610487565b50505050565b336104fb826105d2565b6001600160a01b0316148061052057503361051582610387565b6001600160a01b0316145b806105385750610538610532826105d2565b336107ca565b61058f5760405162461bcd60e51b815260206004820152602260248201527f4669617473656e644e46543a204e6f74206f776e6572206f7220617070726f76604482015261195960f21b6064820152608401610487565b610598816109c2565b60008181526009602052604081206105af916110da565b50565b6105cd838383604051806020016040528060008152506106a1565b505050565b60006102ef82610883565b60006001600160a01b038216610609576040516322718ad960e21b815260006004820152602401610487565b506001600160a01b031660009081526003602052604090205490565b61062d6109fd565b6106376000610a2a565b565b60606001805461030490611489565b6103bb338383610a7c565b6008546106608482610b1b565b61066a8184610b35565b6000818152600960205260409020610682838261150a565b5060016008600082825461069691906115c9565b909155505050505050565b6106ac848484610461565b6104eb3385858585610b85565b60606106c482610883565b50600082815260066020526040812080546106de90611489565b80601f016020809104026020016040519081016040528092919081815260200182805461070a90611489565b80156107575780601f1061072c57610100808354040283529160200191610757565b820191906000526020600020905b81548152906001019060200180831161073a57829003601f168201915b50505050509050600061077560408051602081019091526000815290565b90508051600003610787575092915050565b8151156107b95780826040516020016107a19291906115ea565b60405160208183030381529060405292505050919050565b6107c284610cb0565b949350505050565b6001600160a01b03918216600090815260056020908152604080832093909416825291909152205460ff1690565b6108006109fd565b6001600160a01b03811661082a57604051631e4fbdf760e01b815260006004820152602401610487565b6105af81610a2a565b60006001600160e01b031982166380ac58cd60e01b148061086457506001600160e01b03198216635b5e139f60e01b145b806102ef57506301ffc9a760e01b6001600160e01b03198316146102ef565b6000818152600260205260408120546001600160a01b0316806102ef57604051637e27328960e01b815260048101849052602401610487565b6105cd8383836001610d25565b6000828152600260205260408120546001600160a01b03908116908316156108f6576108f6818486610e2b565b6001600160a01b0381161561093457610913600085600080610d25565b6001600160a01b038116600090815260036020526040902080546000190190555b6001600160a01b03851615610963576001600160a01b0385166000908152600360205260409020805460010190555b60008481526002602052604080822080546001600160a01b0319166001600160a01b0389811691821790925591518793918516917fddf252ad1be2c89b69c2b068fc378daa952ba7f163c4a11628f55a4df523b3ef91a4949350505050565b60006109d160008360006108c9565b90506001600160a01b0381166103bb57604051637e27328960e01b815260048101839052602401610487565b6007546001600160a01b031633146106375760405163118cdaa760e01b8152336004820152602401610487565b600780546001600160a01b038381166001600160a01b0319831681179093556040519116919082907f8be0079c531659141344cd1fd0a4f28419497f9722a3daafe3b4186f6b6457e090600090a35050565b6001600160a01b038216610aae57604051630b61174360e31b81526001600160a01b0383166004820152602401610487565b6001600160a01b03838116600081815260056020908152604080832094871680845294825291829020805460ff191686151590811790915591519182527f17307eab39ab6107e8899845ad3d59bd9653f200f220920489ca2b5937696c31910160405180910390a3505050565b6103bb828260405180602001604052806000815250610e8f565b6000828152600660205260409020610b4d828261150a565b506040518281527ff8e1a15aba9398e019f0b49df1a4fde98ee17ae345cb5f6b5e2c27f5033e8ce79060200160405180910390a15050565b6001600160a01b0383163b15610ca957604051630a85bd0160e11b81526001600160a01b0384169063150b7a0290610bc7908890889087908790600401611619565b6020604051808303816000875af1925050508015610c02575060408051601f3d908101601f19168201909252610bff91810190611656565b60015b610c6b573d808015610c30576040519150601f19603f3d011682016040523d82523d6000602084013e610c35565b606091505b508051600003610c6357604051633250574960e11b81526001600160a01b0385166004820152602401610487565b805181602001fd5b6001600160e01b03198116630a85bd0160e11b14610ca757604051633250574960e11b81526001600160a01b0385166004820152602401610487565b505b5050505050565b6060610cbb82610883565b506000610cd360408051602081019091526000815290565b90506000815111610cf35760405180602001604052806000815250610d1e565b80610cfd84610ea7565b604051602001610d0e9291906115ea565b6040516020818303038152906040525b9392505050565b8080610d3957506001600160a01b03821615155b15610dfb576000610d4984610883565b90506001600160a01b03831615801590610d755750826001600160a01b0316816001600160a01b031614155b8015610d885750610d8681846107ca565b155b15610db15760405163a9fbf51f60e01b81526001600160a01b0384166004820152602401610487565b8115610df95783856001600160a01b0316826001600160a01b03167f8c5be1e5ebec7d5bd14f71427d1e84f3dd0314c0f7b2291e5b200ac8c7c3b92560405160405180910390a45b505b5050600090815260046020526040902080546001600160a01b0319166001600160a01b0392909216919091179055565b610e36838383610f3a565b6105cd576001600160a01b038316610e6457604051637e27328960e01b815260048101829052602401610487565b60405163177e802f60e01b81526001600160a01b038316600482015260248101829052604401610487565b610e998383610f9d565b6105cd336000858585610b85565b60606000610eb483611002565b600101905060008167ffffffffffffffff811115610ed457610ed46112b1565b6040519080825280601f01601f191660200182016040528015610efe576020820181803683370190505b5090508181016020015b600019016f181899199a1a9b1b9c1cb0b131b232b360811b600a86061a8153600a8504945084610f0857509392505050565b60006001600160a01b038316158015906107c25750826001600160a01b0316846001600160a01b03161480610f745750610f7484846107ca565b806107c25750506000908152600460205260409020546001600160a01b03908116911614919050565b6001600160a01b038216610fc757604051633250574960e11b815260006004820152602401610487565b6000610fd5838360006108c9565b90506001600160a01b038116156105cd576040516339e3563760e11b815260006004820152602401610487565b60008072184f03e93ff9f4daa797ed6e38ed64bf6a1f0160401b83106110415772184f03e93ff9f4daa797ed6e38ed64bf6a1f0160401b830492506040015b6d04ee2d6d415b85acef8100000000831061106d576d04ee2d6d415b85acef8100000000830492506020015b662386f26fc10000831061108b57662386f26fc10000830492506010015b6305f5e10083106110a3576305f5e100830492506008015b61271083106110b757612710830492506004015b606483106110c9576064830492506002015b600a83106102ef5760010192915050565b5080546110e690611489565b6000825580601f106110f6575050565b601f0160209004906000526020600020908101906105af91905b808211156111245760008155600101611110565b5090565b6001600160e01b0319811681146105af57600080fd5b60006020828403121561115057600080fd5b8135610d1e81611128565b60005b8381101561117657818101518382015260200161115e565b50506000910152565b6000815180845261119781602086016020860161115b565b601f01601f19169290920160200192915050565b602081526000610d1e602083018461117f565b6000602082840312156111d057600080fd5b5035919050565b80356001600160a01b03811681146111ee57600080fd5b919050565b6000806040838503121561120657600080fd5b61120f836111d7565b946020939093013593505050565b60008060006060848603121561123257600080fd5b61123b846111d7565b9250611249602085016111d7565b929592945050506040919091013590565b60006020828403121561126c57600080fd5b610d1e826111d7565b6000806040838503121561128857600080fd5b611291836111d7565b9150602083013580151581146112a657600080fd5b809150509250929050565b634e487b7160e01b600052604160045260246000fd5b60008067ffffffffffffffff8411156112e2576112e26112b1565b50604051601f19601f85018116603f0116810181811067ffffffffffffffff82111715611311576113116112b1565b60405283815290508082840185101561132957600080fd5b83836020830137600060208583010152509392505050565b600082601f83011261135257600080fd5b610d1e838335602085016112c7565b60008060006060848603121561137657600080fd5b61137f846111d7565b9250602084013567ffffffffffffffff81111561139b57600080fd5b6113a786828701611341565b925050604084013567ffffffffffffffff8111156113c457600080fd5b6113d086828701611341565b9150509250925092565b600080600080608085870312156113f057600080fd5b6113f9856111d7565b9350611407602086016111d7565b925060408501359150606085013567ffffffffffffffff81111561142a57600080fd5b8501601f8101871361143b57600080fd5b61144a878235602084016112c7565b91505092959194509250565b6000806040838503121561146957600080fd5b611472836111d7565b9150611480602084016111d7565b90509250929050565b600181811c9082168061149d57607f821691505b6020821081036114bd57634e487b7160e01b600052602260045260246000fd5b50919050565b601f8211156105cd57806000526020600020601f840160051c810160208510156114ea5750805b601f840160051c820191505b81811015610ca957600081556001016114f6565b815167ffffffffffffffff811115611524576115246112b1565b611538816115328454611489565b846114c3565b6020601f82116001811461156c57600083156115545750848201515b600019600385901b1c1916600184901b178455610ca9565b600084815260208120601f198516915b8281101561159c578785015182556020948501946001909201910161157c565b50848210156115ba5786840151600019600387901b60f8161c191681555b50505050600190811b01905550565b808201808211156102ef57634e487b7160e01b600052601160045260246000fd5b600083516115fc81846020880161115b565b83519083019061161081836020880161115b565b01949350505050565b6001600160a01b038581168252841660208201526040810183905260806060820181905260009061164c9083018461117f565b9695505050505050565b60006020828403121561166857600080fd5b8151610d1e8161112856fea2646970667358221220a89d19fa55420b0d549e1e890128d9eff1aace9be60e9f7e4e973da60f3e90bf64736f6c634300081b0033",
  "linkReferences": {},
  "deployedLinkReferences": {}
}