{
  "_format": "hh-sol-artifact-1",
  "contractName": "TokenFaucet",
  "sourceName": "contracts/TokenFaucet.sol",
  "abi": [
    {
      "inputs": [
        {
          "internalType": "address",
          "name": "_tether",
          "type": "address"
        },
        {
          "internalType": "address",
          "name": "_fsend",
          "type": "address"
        },
        {
          "internalType": "address",
          "name": "_ghsfiat",
          "type": "address"
        }
      ],
      "stateMutability": "nonpayable",
      "type": "constructor"
    },
    {
      "inputs": [],
      "name": "COOLDOWN_TIME",
      "outputs": [
        {
          "internalType": "uint256",
          "name": "",
          "type": "uint256"
        }
      ],
      "stateMutability": "view",
      "type": "function"
    },
    {
      "inputs": [],
      "name": "REQUEST_AMOUNT",
      "outputs": [
        {
          "internalType": "uint256",
          "name": "",
          "type": "uint256"
        }
      ],
      "stateMutability": "view",
      "type": "function"
    },
    {
      "inputs": [],
      "name": "fsend",
      "outputs": [
        {
          "internalType": "contract IERC20",
          "name": "",
          "type": "address"
        }
      ],
      "stateMutability": "view",
      "type": "function"
    },
    {
      "inputs": [],
      "name": "ghsfiat",
      "outputs": [
        {
          "internalType": "contract IERC20",
          "name": "",
          "type": "address"
        }
      ],
      "stateMutability": "view",
      "type": "function"
    },
    {
      "inputs": [
        {
          "internalType": "address",
          "name": "",
          "type": "address"
        }
      ],
      "name": "lastRequestTime",
      "outputs": [
        {
          "internalType": "uint256",
          "name": "",
          "type": "uint256"
        }
      ],
      "stateMutability": "view",
      "type": "function"
    },
    {
      "inputs": [],
      "name": "requestTokens",
      "outputs": [],
      "stateMutability": "nonpayable",
      "type": "function"
    },
    {
      "inputs": [],
      "name": "tether",
      "outputs": [
        {
          "internalType": "contract IERC20",
          "name": "",
          "type": "address"
        }
      ],
      "stateMutability": "view",
      "type": "function"
    }
  ],
  "bytecode": "0x6080604052348015600f57600080fd5b506040516104c83803806104c8833981016040819052602c916088565b600080546001600160a01b039485166001600160a01b03199182161790915560018054938516938216939093179092556002805491909316911617905560c4565b80516001600160a01b0381168114608357600080fd5b919050565b600080600060608486031215609c57600080fd5b60a384606d565b925060af60208501606d565b915060bb60408501606d565b90509250925092565b6103f5806100d36000396000f3fe608060405234801561001057600080fd5b506004361061007d5760003560e01c8063396617341161005b57806339661734146100cf5780635efc071a146100fa5780637d2632451461010d5780639569505e1461011757600080fd5b806316d26e3a14610082578063359cf2b7146100a5578063394f6181146100af575b600080fd5b61009268056bc75e2d6310000081565b6040519081526020015b60405180910390f35b6100ad61012a565b005b6100926100bd36600461032d565b60036020526000908152604090205481565b6002546100e2906001600160a01b031681565b6040516001600160a01b03909116815260200161009c565b6000546100e2906001600160a01b031681565b6100926201518081565b6001546100e2906001600160a01b031681565b3360009081526003602052604090205461014890620151809061035d565b42101561019c5760405162461bcd60e51b815260206004820152601760248201527f436f6f6c646f776e20706572696f64206e6f74206d657400000000000000000060448201526064015b60405180910390fd5b6000546101b1906001600160a01b03166101ef565b6001546101c6906001600160a01b03166101ef565b6002546101db906001600160a01b03166101ef565b336000908152600360205260409020429055565b6040516370a0823160e01b815230600482015268056bc75e2d63100000906001600160a01b038316906370a0823190602401602060405180830381865afa15801561023e573d6000803e3d6000fd5b505050506040513d601f19601f820116820180604052508101906102629190610384565b10156102b05760405162461bcd60e51b815260206004820152601d60248201527f496e73756666696369656e7420746f6b656e7320696e206661756365740000006044820152606401610193565b60405163a9059cbb60e01b815233600482015268056bc75e2d6310000060248201526001600160a01b0382169063a9059cbb906044016020604051808303816000875af1158015610305573d6000803e3d6000fd5b505050506040513d601f19601f82011682018060405250810190610329919061039d565b5050565b60006020828403121561033f57600080fd5b81356001600160a01b038116811461035657600080fd5b9392505050565b8082018082111561037e57634e487b7160e01b600052601160045260246000fd5b92915050565b60006020828403121561039657600080fd5b5051919050565b6000602082840312156103af57600080fd5b8151801515811461035657600080fdfea264697066735822122076c98fb6ebae7f269b5088fb4142590a8382f5dbccb183926c8df4f536e6e2ad64736f6c634300081b0033",
  "linkReferences": {},
  "deployedLinkReferences": {}
}